:100000000C942A000C943C000C943C000C943C0092
:100010000C943C000C943C000C943C000C943C0070
:100020000C943C000C94D2000C943C000C943E00C8
:100030000C9479000C94C2000C94EB060C943C00D8
:100040000C943C000C943C000C943C000C943C0040
:100050000C943C0011241FBECFE5D4E0DEBFCDBF21
:1000600011E0A0E6B0E001C01D92AD3FB107E1F79D
:100070000E94E9000C94BD070C9400001F920F929F
:100080000FB60F9211242F933F938F939F93EF936B
:10009000FF93DF93CF93CDB7DEB780917900909136
:1000A0007A002CE230E0F9012081222F30E0880F25
:1000B000991F835F9E4FFC013183208380917900DB
:1000C00090917A00019690937A0080937900109233
:1000D000730081E080937200CF91DF91FF91EF91E7
:1000E0009F918F913F912F910F900FBE0F901F9076
:1000F00018951F920F920FB60F9211242F933F93D2
:100100008F939F93EF93FF93DF93CF93CDB7DEB79A
:1001100080917D0090917E00019690937E00809367
:100120007D0020917D0030917E0080917B00909138
:100130007C002817390751F48AE290E02AE230E087
:10014000F90120812F7DFC0120830FC08CE290E01B
:1001500020917D0030917E00220F331F2B573E4FA0
:10016000F90120813181FC012083CF91DF91FF9142
:10017000EF919F918F913F912F910F900FBE0F9014
:100180001F9018951F920F920FB60F921124DF93B4
:10019000CF93CDB7DEB7CF91DF910F900FBE0F9009
:1001A0001F9018951F920F920FB60F9211248F93E4
:1001B000DF93CF93CDB7DEB7809173008F5F8093CD
:1001C0007300CF91DF918F910F900FBE0F901F9012
:1001D0001895DF93CF9300D000D000D0CDB7DEB715
:1001E000789489E290E027E6FC01208380E490E0A7
:1001F000FC0110828BE290E0FC0110828AE290E028
:1002000028E9FC01208380E490E026E8FC012083BB
:1002100089E590E021E0FC01208383E590E022E085
:10022000FC01208387E290E020E4FC01208386E249
:1002300090E02BECFC0120838AE390E0FC0110822B
:1002400081E390E021E330E0F90120812460FC01AA
:10025000208382E390E022E330E0F9012081FC0179
:10026000208381E390E021E330E0F90120812860E0
:10027000FC01208382E390E022E330E0F901208159
:10028000FC01208380917200813079F480917300A9
:10029000843158F0109272001092730081E08093C4
:1002A000740010927E0010927D0080917400882F5F
:1002B00090E08230910509F42EC48330910509F451
:1002C00042C48130910509F03FC480910D019091A5
:1002D0000E018230910509F017C480917900909148
:1002E0007A0002979C018DE091E0B9010E9484069A
:1002F000CC01A0E0B0E08093F7009093F800A093C9
:10030000F900B093FA008091790090917A000297F9
:10031000880F991F835F9E4FFC018081918190938C
:100320000601809305018091790090917A000197F0
:10033000880F991F835F9E4FFC018081918190936C
:100340000401809303018091F7009091F800A0913F
:10035000F900B091FA00892F9A2FAB2FBB2790702C
:1003600090930801809307018091F7009091F80025
:10037000A091F900B091FA00907090930A018093D7
:1003800009012091030130910401809107019091AE
:1003900008012817390709F0A7C3209105013091FA
:1003A00006018091090190910A012817390709F087
:1003B0009BC380910F01909110018430910509F445
:1003C00088C3853091052CF48330910509F4E7C189
:1003D00081C38630910529F08031910509F4AAC0C6
:1003E00079C38091110190911201AA2797FDA095E0
:1003F000BA2F8093FB009093FC00A093FD00B09374
:10040000FE008091FB009091FC00A091FD00B09156
:10041000FE002227382F492F5A2F809113019091E7
:100420001401AA2797FDA095BA2F822B932BA42BFA
:10043000B52B8093FB009093FC00A093FD00B0933C
:10044000FE008091FB009091FC00A091FD00B09116
:10045000FE008E319105A105B10508F064C08091C0
:10046000FB009091FC00A091FD00B091FE00880F70
:10047000991FAA1FBB1F2091150130911601880FEB
:10048000991F8F579F4FFC01318320838091FB0080
:100490009091FC00A091FD00B091FE00880F991F83
:1004A000AA1FBB1F0196A11DB11D209117013091FC
:1004B0001801880F991F8F579F4FFC0131832083AC
:1004C0001A82198217C089819A81880F991F835FC8
:1004D0009E4FFC012081318189819A81880F991F6B
:1004E0008B579E4FFC013183208389819A8101962D
:1004F0009A8389838091790090917A0029813A8149
:100500008217930704F78091790090917A00909375
:100510007C0080937B0010927A001092790082E038
:1005200080937400D7C210927A00109279001092D2
:100530007400D0C28091110190911201AA2797FDF9
:10054000A095BA2F8093FB009093FC00A093FD0030
:10055000B093FE008091FB009091FC00A091FD0003
:10056000B091FE002227382F492F5A2F8091130176
:1005700090911401AA2797FDA095BA2F822B932B57
:10058000A42BB52B8093FB009093FC00A093FD005F
:10059000B093FE008091170190911801823091056F
:1005A00009F0F6C08091190190911A0199230CF479
:1005B0000196959587959C01442737FD4095542FCA
:1005C0008091FB009091FC00A091FD00B091FE0095
:1005D000820F931FA41FB51F8E319105A105B10590
:1005E00008F0CFC08091FB009091FC00A091FD002D
:1005F000B091FE00880F991FAA1FBB1F8093FB00BC
:100600009093FC00A093FD00B093FE001C821B821F
:1006100032C08091FB009091FC00A091FD00B09150
:10062000FE002B813C81295F3F4F220F331F235F48
:100630003E4FF90120813181880F991F8F579F4FBD
:10064000FC01318320838091FB009091FC00A091FC
:10065000FD00B091FE000196A11DB11D8093FB002D
:100660009093FC00A093FD00B093FE008B819C81D1
:1006700001969C838B832091190130911A018B8103
:100680009C81821793072CF280910D0190910E01AD
:10069000909386018093850180910F0190911001C4
:1006A00090938801809387018091110190911201AC
:1006B00090938A0180938901809113019091140194
:1006C00090938C0180938B0180911501909116017C
:1006D00090938E0180938D01809117019091180164
:1006E0009093900180938F0185E891E066E070E03F
:1006F0000E948406CC01A0E0B0E08093F7009093C4
:10070000F800A093F900B093FA008091F70090915F
:10071000F800A091F900B091FA00892F9A2FAB2F21
:10072000BB27907090930801809307018091F70098
:100730009091F800A091F900B091FA009070909318
:100740000A01809309018091090190910A01909317
:1007500092018093910180910701909108019093FB
:1007600094018093930188E090E090937C008093C3
:100770007B0010927A001092790082E080937400DE
:10078000A9C110927A001092790010927400A2C14F
:1007900010927A0010927900109274009BC180919F
:1007A000110190911201AA2797FDA095BA2F80936D
:1007B000FB009093FC00A093FD00B093FE0080919D
:1007C000FB009091FC00A091FD00B091FE0022275B
:1007D000382F492F5A2F8091130190911401AA2785
:1007E00097FDA095BA2F822B932BA42BB52B80932A
:1007F000FB009093FC00A093FD00B093FE0080915D
:10080000150190911601AA2797FDA095BA2F809304
:10081000FF0090930001A0930101B0930201809129
:10082000FF0090910001A0910101B09102012227E7
:10083000382F492F5A2F8091170190911801AA271C
:1008400097FDA095BA2F822B932BA42BB52B8093C9
:10085000FF0090930001A0930101B09302018091E9
:10086000FB009091FC00A091FD00B091FE008E3144
:100870009105A105B105D0F02091FB003091FC005D
:100880004091FD005091FE008091FF009091000189
:10089000A0910101B0910201820F931FA41FB51F07
:1008A0008E319105A105B10508F00CC180910D01B3
:1008B00090910E01909386018093850180910F01A4
:1008C0009091100190938801809387018091FF009F
:1008D00090910001A0910101B0910201880F991F30
:1008E00090938A01809389018091FB009091FC0094
:1008F000A091FD00B091FE00880F991FAA1FBB1F99
:100900008093FB009093FC00A093FD00B093FE0049
:100910008091FF0090910001A0910101B09102012E
:10092000880F991FAA1FBB1F8093FF00909300019F
:10093000A0930101B09302011E821D8234C08D81FB
:100940009E81AC014D5F5F4F8091FB009091FC0058
:10095000A091FD00B091FE00880F991F8F579F4F07
:10096000FC0120813181CA01880F991F8B579E4F4E
:10097000FC01318320838091FB009091FC00A091C9
:10098000FD00B091FE000196A11DB11D8093FB00FA
:100990009093FC00A093FD00B093FE008D819E819A
:1009A00001969E838D838D819E819C01442737FD16
:1009B0004095542F8091FF0090910001A09101017A
:1009C000B091020182179307A407B50708F0B7CFCB
:1009D0008091FF0090910001A0910101B09102016E
:1009E0009C012D5F3F4F85E891E0B9010E9484068C
:1009F000CC01A0E0B0E08093F7009093F800A093C2
:100A0000F900B093FA008091F7009091F800A0915E
:100A1000F900B091FA00892F9A2FAB2FBB27907065
:100A200090930801809307018091F7009091F8005E
:100A3000A091F900B091FA00907090930A01809310
:100A400009018091FF0090910001A0910101B091F6
:100A500002010396A11DB11D2091090130910A01E7
:100A6000880F991F8B579E4FFC0131832083809103
:100A7000FF0090910001A0910101B0910201049644
:100A8000A11DB11D2091070130910801880F991F08
:100A90008B579E4FFC01318320838091FF00909102
:100AA0000001A0910101B0910201059690937C0094
:100AB00080937B0010927A001092790082E08093FC
:100AC000740008C010927A0010927900109274009D
:100AD00001C0000082E390E022E330E0F9012081D0
:100AE000277FFC01208330C01092740010927A009E
:100AF0001092790082E390E022E330E0F901208156
:100B00002860FC01208320C01092740010927A00AB
:100B10001092790019C010927E0010927D008CE234
:100B200090E02091850130918601FC0120838AE2CA
:100B300090E02AE230E0F90120812062FC0120836C
:100B40001092740001C000008091600090916100DB
:100B5000892F992790938200809381008091600073
:100B600090916100907090938400809383008091B5
:100B7000620090916300892F99279093860080935B
:100B8000850080916200909163009070909388003E
:100B900080938700809164009091650090930C0190
:100BA00080930B0180910B0190910C01892F992763
:100BB00090938A008093890080910B0190910C01A1
:100BC000907090938C0080938B0080916600909140
:100BD000670090930C0180930B0180910B01909121
:100BE0000C01892F992790938E0080938D0080911E
:100BF0000B0190910C0190709093900080938F0066
:100C0000809168009091690090930C0180930B0192
:100C100080910B0190910C01892F9927909392005C
:100C20008093910080910B0190910C0190709093B2
:100C300094008093930080916A0090916B00909350
:100C40000C0180930B0180910B0190910C01892F75
:100C50009927909396008093950080910B01909135
:100C60000C019070909398008093970080916C0095
:100C700090916D0090930C0180930B0180910B017A
:100C800090910C01892F992790939A008093990055
:100C900080910B0190910C01907090939C00809337
:100CA0009B0080916E0090916F0090930C01809357
:100CB0000B0180910B0190910C01892F9927909342
:100CC0009E0080939D0080910B0190910C0190708B
:100CD0009093A00080939F0080917300882354F428
:100CE00082E390E022E330E0F90120812460FC01FE
:100CF0002083C8CA82E390E022E330E0F90120813A
:100D00002B7FFC012083BECADF93CF93CDB7DEB724
:100D10002A970FB6F894DEBF0FBECDBF98878F839A
:100D20007A8769878FEF9FEF9A8389831C821B8262
:100D30003FC08B819C81880F991F2F813885820F3E
:100D4000931FFC018081918129813A818227932719
:100D50009A83898388E090E09E838D8320C0898177
:100D60009A8181709070009739F489819A81969563
:100D700087959A8389830EC089819A8196958795F4
:100D80009A83898329813A8181E090EA8227932797
:100D90009A8389838D819E8101979E838D838D8126
:100DA0009E810097E1F68B819C8101969C838B83C9
:100DB0002B813C8189859A852817390708F4B9CF9A
:100DC00089819A812A960FB6F894DEBF0FBECDBFF7
:100DD000CF91DF9108951F920F920FB60F921124B9
:100DE0002F938F939F93EF93FF93DF93CF93CDB781
:100DF000DEB780917000909171008830910508F005
:100E0000A7C080917000909171008330910509F422
:100E100048C08430910538F48130910521F1823049
:100E2000910580F511C08530910509F458C08530D1
:100E3000910508F445C08630910509F45FC08730FC
:100E4000910509F46BC07AC084E290E0FC018081D6
:100E50009181909361008093600087E290E021E4AB
:100E6000FC0120836BC084E290E0FC0180819181D1
:100E7000909363008093620087E290E022E4FC019B
:100E800020835CC084E290E0FC018081918190939A
:100E900065008093640087E290E023E4FC012083F6
:100EA0004DC084E290E0FC018081918190936700C5
:100EB0008093660087E290E024E4FC0120833EC03A
:100EC00084E290E0FC01808191819093690080939D
:100ED000680087E290E025E4FC0120832FC084E2D3
:100EE00090E0FC018081918190936B0080936A0077
:100EF00087E290E026E6FC01208320C085E290E0B6
:100F0000FC018081882F90E090936D0080936C00AD
:100F100087E290E027E6FC01208310C085E290E0A4
:100F2000FC018081882F90E090936F0080936E0089
:100F300087E290E020E4FC012083000080917000B3
:100F4000909171000196909371008093700004C09D
:100F5000109271001092700086E290E02DECFC017E
:100F60002083CF91DF91FF91EF919F918F912F91EE
:0E0F70000F900FBE0F901F901895F894FFCFB2
:00000001FF
