:100000000C942A000C9447000C9447000C94470071
:100010000C9447000C9447000C9447000C94470044
:100020000C9447000C9449000C9447000C94470032
:100030000C9447000C9447000C9474000C944700F7
:100040000C9447000C9447000C9447000C94470014
:100050000C94470011241FBECFE5D4E0DEBFCDBF16
:1000600010E0A0E6B0E0E8E3FDE002C005900D92EC
:10007000AA37B107D9F710E0AAE7B0E001C01D9296
:10008000AD39B107E1F70E9444010C949A060C9433
:1000900000001F920F920FB60F9211248F939F931F
:1000A000AF93BF93DF93CF93CDB7DEB780917A0044
:1000B00090917B00A0917C00B0917D000196A11DE4
:1000C000B11D80937A0090937B00A0937C00B09345
:1000D0007D00CF91DF91BF91AF919F918F910F9054
:1000E0000FBE0F901F9018951F920F920FB60F9290
:1000F00011242F938F939F93EF93FF93DF93CF93CD
:10010000CDB7DEB78091940090919500883091052D
:1001100008F0A5C0809194009091950083309105DE
:1001200009F448C08430910538F48130910521F1FB
:100130008230910580F511C08530910509F458C0D1
:100140008530910508F445C08630910509F45FC0FB
:100150008730910509F46AC078C084E290E0FC0120
:1001600080819181909385008093840087E290E064
:1001700021E4FC01208369C084E290E0FC018081DD
:100180009181909387008093860087E290E022E43B
:10019000FC0120835AC084E290E0FC0180819181BF
:1001A000909389008093880087E290E023E4FC012B
:1001B00020834BC084E290E0FC0180819181909388
:1001C0008B0080938A0087E290E024E4FC01208386
:1001D0003CC084E290E0FC018081918190938D008D
:1001E00080938C0087E290E025E4FC0120832DC001
:1001F00084E290E0FC018081918190938F00809354
:100200008E0087E290E026E4FC0120831EC084E299
:1002100090E0FC0180819181909391008093900007
:1002200087E290E027E4FC0120830FC084E290E0A5
:10023000FC0180819181909393008093920087E2EA
:1002400090E020E4FC0120830000809194009091D4
:1002500095000196909395008093940004C01092AD
:1002600095001092940086E290E02AECFC01208335
:10027000CF91DF91FF91EF919F918F912F910F90EF
:100280000FBE0F901F901895DF93CF93CDB7DEB7B9
:10029000789489E590E021E0FC01208383E590E0FB
:1002A00023E0FC01208387E390E027E330E0F901BD
:1002B00020812860FC01208387E390E027E330E081
:1002C000F90120812460FC01208387E390E027E38B
:1002D00030E0F90120812260FC01208387E390E077
:1002E00027E330E0F90120812160FC01208384E3D1
:1002F00090E024E330E0F90120812062FC012083BA
:1003000084E390E024E330E0F90120812061FC01E6
:10031000208384E390E024E330E0F9012081286029
:10032000FC01208381E390E021E330E0F9012081AA
:100330002460FC01208382E390E022E330E0F901B5
:1003400020812460FC0120838AE390E0FC0110827C
:1003500081E390E02FEFFC01208384E390E024E32D
:1003600030E0F90120812E7FFC01208385E390E0BD
:1003700025E330E0F90120812160FC0120830E9407
:10038000490480E090E060E070E00E94E90484E6C7
:1003900090E00E945E0681E090E060E070E00E94E4
:1003A000E9048CE690E00E945E0682E090E060E066
:1003B00070E00E94E90484E790E00E945E0683E01A
:1003C00090E060E070E00E94E90487E790E00E941E
:1003D0005E0610927A0010927B0010927C001092C0
:1003E0007D0087E290E020E4FC01208386E290E03B
:1003F0002BECFC01208301C0000080E090E06BE06A
:1004000070E00E94E90480E090E00E94220380E115
:1004100090E00E94690380E090E068E070E00E9454
:10042000E90480919200909193000E94C40581E0BC
:1004300090E06BE070E00E94E90480E090E00E94B0
:10044000220380E190E00E94690381E090E068E08F
:1004500070E00E94E90480919000909191000E94C8
:10046000C40582E090E063E070E00E94E9048091BE
:100470009600909197000E94C40583E090E063E0AD
:1004800070E00E94E90480919800909199000E9488
:10049000C40583E390E0FC018081882F90E08170A7
:1004A0009070882351F082E390E022E330E0F9017C
:1004B00020812460FC01208309C082E390E022E3D4
:1004C00030E0F90120812B7FFC0120838091920094
:1004D00090919300F1E0843F9F0780F58091920016
:1004E000909193008436910550F4809196009091FC
:1004F0009700019690939700809396001FC080917B
:100500009A0090919B0027E28131920770F010923F
:100510009B0010929A00809196009091970001960E
:10052000909397008093960009C080919A009091D3
:100530009B00019690939B0080939A00809192007B
:1005400090919300E2E089359E0708F455CF8091A1
:10055000920090919300F3E085389F0750F08091CE
:100560009600909197000197909397008093960042
:1005700044CF80919A0090919B0027E281319207AD
:1005800070F010929B0010929A00809196009091CA
:100590009700019790939700809396002ECF8091BB
:1005A0009A0090919B00019690939B0080939A00F3
:1005B00024CFDF93CF9300D0CDB7DEB79A83898362
:1005C00010927A0010927B0010927C0010927D00B5
:1005D000000089819A819C0140E050E080917A007E
:1005E00090917B00A0917C00B0917D0082179307D1
:1005F000A407B50770F30F900F90CF91DF91089586
:10060000DF93CF9300D0CDB7DEB79A83898385E39C
:1006100090E025E330E0F90120812860FC0120838F
:1006200089819A810E94D90285E390E025E330E038
:10063000F9012081277FFC0120830F900F90CF913B
:10064000DF910895DF93CF9300D0CDB7DEB79A83C3
:10065000898389819A81009751F085E390E025E3B1
:1006600030E0F90120812F7DFC01208309C085E362
:1006700090E025E330E0F90120812062FC01208335
:100680000F900F90CF91DF910895DF93CF9300D01B
:10069000CDB7DEB79A83898389819A8181309105AC
:1006A00051F085E390E025E330E0F90120812F7ED1
:1006B000FC01208309C085E390E025E330E0F901E7
:1006C00020812061FC0120830F900F90CF91DF915A
:1006D0000895DF93CF9300D0CDB7DEB79A83898397
:1006E00089819A8180789070009751F488E390E036
:1006F00028E330E0F9012081277FFC01208309C035
:1007000088E390E028E330E0F90120812860FC01D3
:10071000208389819A8180749070009751F488E3D6
:1007200090E028E330E0F90120812B7FFC01208359
:1007300009C088E390E028E330E0F90120812460DB
:10074000FC01208389819A8180729070009751F416
:1007500088E390E028E330E0F90120812D7FFC015F
:10076000208309C088E390E028E330E0F90120818C
:100770002260FC01208389819A81807190700097AA
:1007800051F488E390E028E330E0F90120812E7FE6
:10079000FC01208309C088E390E028E330E0F90100
:1007A00020812160FC012083809160009091610094
:1007B0000E94000389819A8188709070009751F49B
:1007C00088E390E028E330E0F9012081277FFC01F5
:1007D000208309C088E390E028E330E0F90120811C
:1007E0002860FC01208389819A8184709070009731
:1007F00051F488E390E028E330E0F90120812B7F79
:10080000FC01208309C088E390E028E330E0F9018F
:1008100020812460FC01208389819A8182709070FC
:10082000009751F488E390E028E330E0F90120815B
:100830002D7FFC01208309C088E390E028E330E0AD
:10084000F90120812260FC01208389819A818170D5
:100850009070009751F488E390E028E330E0F901CC
:1008600020812E7FFC01208309C088E390E028E3EB
:1008700030E0F90120812160FC012083809160003B
:10088000909161000E9400030F900F90CF91DF9133
:100890000895DF93CF93CDB7DEB780E991E00E9452
:1008A000D90285E390E025E330E0F90120812F7D36
:1008B000FC01208385E390E025E330E0F90120810D
:1008C0002F7EFC01208388E390E028E330E0F901EB
:1008D0002081277FFC01208388E390E028E330E03B
:1008E000F90120812B7FFC01208388E390E028E33D
:1008F00030E0F90120812260FC01208388E390E050
:1009000028E330E0F90120812160FC0120838091FF
:100910006000909161000E94000380E991E00E94D4
:10092000D90280916000909161000E94000388ECE0
:1009300090E00E94D90280916000909161000E9435
:10094000000384E690E00E94D90282E390E00E94D6
:10095000690380916200909163000E94D90288E24D
:1009600090E00E94690380916200909163000E9470
:10097000D9028CE090E00E9469038091620090911E
:1009800063000E94D90281E090E00E946903809197
:100990006200909163000E94D90286E090E00E947C
:1009A000690380916200909163000E94D902CF9107
:1009B000DF910895DF93CF93CDB7DEB781E090E06C
:1009C0000E94220381E090E00E946903CF91DF91B1
:1009D0000895DF93CF9300D000D0CDB7DEB79A83D0
:1009E00089837C836B8381E090E00E94220389816C
:1009F0009A8181309105E9F0823091051CF40097CD
:100A000041F04EC08230910521F18330910589F18A
:100A100047C08B819C8180319105DCF58B819C8165
:100A200080589F4F9C838B838B819C810E9469039C
:100A300037C08B819C81803191056CF58B819C81C5
:100A400080549F4F9C838B838B819C810E94690380
:100A500027C08B819C8180319105FCF48B819C8126
:100A600080579F4F9C838B838B819C810E9469035D
:100A700017C08B819C81803191058CF48B819C8186
:100A800080539F4F9C838B838B819C810E94690341
:100A900007C0000005C0000003C0000001C0000046
:100AA0000F900F900F900F90CF91DF910895DF93EB
:100AB000CF93CDB7DEB72C970FB6F894DEBF0FBE3D
:100AC000CDBF9A8789877C876B8780E197E29A837D
:100AD00089831C821B821E821D8218861F823EC053
:100AE0002B853C8589819A81A901481B590BCA0134
:100AF0009C878B878B819C8101969C838B832B8524
:100B00003C8589819A812817390750F78B819C8110
:100B1000009799F08B819C81C0969C838B8329855B
:100B20003A858D819E81820F931F2B81FC0120834A
:100B30008D819E8101969E838D8389819A812AE091
:100B400030E0B9010E9486069B013A8329831C820A
:100B50001B828F819885019698878F838F819885D6
:100B60008A30910560F229853A858D819E81820FB8
:100B7000931FFC0110822C960FB6F894DEBF0FBEB7
:100B8000CDBFCF91DF910895DF93CF93CDB7DEB77F
:100B900068970FB6F894DEBF0FBECDBF988F8F8BCE
:100BA00019821A828981282F30E08F89988D4AE036
:100BB00050E0BA010E948606482F405DCE0107969C
:100BC000820F931FFC01408389818F5F89838F8906
:100BD000988D2AE030E0B9010E9486069B01388F8B
:100BE0002F8B8F89988D0097E9F68981882F90E067
:100BF0009E01295F3F4F820F931FFC0110821B82D1
:100C000012C08B81882F90E09E01295F3F4F820F99
:100C1000931FFC018081882351F08A818F5F8A8332
:100C20008B818F5F8B838B81803158F301C00000F3
:100C30001C828A8181508D8330C08C81882F90E006
:100C40009E01295F3F4F820F931FFC0180818E839D
:100C50008C81882F90E02D81222F30E0AE01495FFA
:100C60005F4F240F351FF90140819E01295F3F4FDF
:100C7000820F931FFC0140838D81882F90E09E019D
:100C8000295F3F4F820F931F2E81FC0120838C81AF
:100C90008F5F8C838D8181508D839C818D8198178E
:100CA00060F2CE0107960E945E0668960FB6F89431
:100CB000DEBF0FBECDBFCF91DF910895DF93CF93FD
:100CC00000D00F92CDB7DEB79B838A8380E090E09F
:100CD0000E9422030FC08A819B81FC01808189834D
:100CE0008A819B8101969B838A838981882F90E0EA
:100CF0000E9469038A819B81FC018081882359F7C6
:100D00000F900F900F90CF91DF910895AA1BBB1BFE
:100D100051E107C0AA1FBB1FA617B70710F0A61BFB
:100D2000B70B881F991F5A95A9F780959095BC011C
:080D3000CD010895F894FFCFF6
:100D3800010064004178697320583A00417869736A
:0A0D480020593A00333A00343A0013
:00000001FF
