:100000000C942A000C9447000C9447000C94470071
:100010000C9447000C9447000C9447000C94470044
:100020000C9447000C94FA020C9447000C9447007F
:100030000C9447000C9447000C9420030C94470048
:100040000C9447000C9447000C9447000C94470014
:100050000C94470011241FBECFE5D4E0DEBFCDBF16
:1000600010E0A0E6B0E0ECE9F0E102C005900D92EE
:10007000AE3DB107D9F711E0AEEDB0E001C01D9281
:10008000A535B107E1F70E9449000C944C080C9487
:100090000000DF93CF93CDB7DEB7789489E590E089
:1000A00021E0FC01208383E590E023E0FC01208334
:1000B0008FE490E021EAFC0120838EE490E029E0C7
:1000C000FC01208387E390E027E330E0F901208101
:1000D0002860FC01208387E390E027E330E0F9010A
:1000E00020812460FC01208387E390E027E330E057
:1000F000F90120812260FC01208387E390E027E35F
:1001000030E0F90120812160FC01208384E390E04C
:1001100024E330E0F90120812062FC01208384E3A4
:1001200090E024E330E0F90120812061FC0120838C
:1001300084E390E024E330E0F90120812860FC01B1
:10014000208381E390E021E330E0F9012081246005
:10015000FC01208381E390E021E330E0F90120817C
:100160002062FC01208381E390E021E330E0F9018B
:1001700020812061FC0120838AE390E0FC01108251
:1001800081E390E02FEFFC01208384E390E024E3FF
:1001900030E0F90120812E7FFC01208385E390E08F
:1001A00025E330E0F90120812160FC0120830E94D9
:1001B0005F051092DF001092DE0087E290E020E4FD
:1001C000FC01208386E290E02BECFC01208384E696
:1001D00090E027E031E0B9010E94940101C00000E5
:1001E0008AE490E02FEF30E0FC013183208388E443
:1001F00090E02091F6003091F700FC0131832083DC
:1002000087E491E00E9409028091490190914A019E
:1002100081309105E1F48091F8009091F9008130EE
:100220009105D9F48091F6009091F7008F3F9105E8
:1002300048F48091F6009091F70001969093F700B2
:100240008093F6001092F9001092F80006C081E049
:1002500090E09093F9008093F80080914B01909189
:100260004C0181309105D9F48091FA009091FB0006
:1002700081309105D1F48091F6009091F7000097BC
:1002800049F08091F6009091F70001979093F70064
:100290008093F6001092FB001092FA0006C081E0F5
:1002A00090E09093FB008093FA008091E0009091A1
:1002B000E1008536910508F492CF2091F20030914B
:1002C000F30087E091E0B90148E050E00E946D063C
:1002D0002091F6003091F70087E091E0B90148E203
:1002E00050E00E946D0680915101909152019C0155
:1002F00087E091E0B90143E350E00E946D068091F0
:100300005301909154019C0187E091E0B9014AE3C7
:1003100050E00E946D0687E091E00E94C5011092B6
:10032000E1001092E0005CCFDF93CF9300D000D0CB
:1003300000D0CDB7DEB79C838B837E836D831A821A
:10034000198215C089819A812D813E81820F931F68
:1003500029813A814B815C81240F351FF90120816D
:10036000FC01208389819A8101969A8389838981FE
:100370009A818C33910534F326960FB6F894DEBF3C
:100380000FBECDBFCF91DF910895DF93CF9300D003
:10039000CDB7DEB79A83898380E090E060E070E0BB
:1003A0000E94FF0589819A8160E070E04FE050E093
:1003B0000E94EA0681E090E060E070E00E94FF05A4
:1003C00089819A816FE070E04FE050E00E94EA0678
:1003D00082E090E060E070E00E94FF0589819A81F0
:1003E0006EE170E04FE050E00E94EA0683E090E0AA
:1003F00060E070E00E94FF0589819A816DE270E003
:100400004FE050E00E94EA060F900F90CF91DF91ED
:100410000895DF93CF9300D0CDB7DEB79A83898359
:1004200083E390E0FC018081882F90E081709070E0
:10043000882389F082E390E022E330E0F901208113
:100440002460FC01208389819A8121E030E0FC0155
:10045000318320830EC082E390E022E330E0F90193
:1004600020812B7FFC01208389819A81FC011182EC
:10047000108289819A81FC0182859385F1E08C321A
:100480009F0794F48091FD009091FE0081309105CA
:1004900059F41092FE001092FD0089819A8121E0AA
:1004A00030E0FC013383228389819A81FC018285BB
:1004B0009385F1E081399F075CF089819A81FC0185
:1004C0001382128281E090E09093FE008093FD0001
:1004D00089819A81FC0182859385F3E081329F07AF
:1004E00094F08091FF00909100018130910559F4C2
:1004F000109200011092FF0089819A8121E030E082
:10050000FC013583248389819A81FC01828593854E
:10051000F2E088359F075CF481E090E09093000161
:100520008093FF0089819A81FC0115821482898160
:100530009A81FC0184859585F1E08C329F0794F4C3
:1005400080910101909102018130910559F410923E
:1005500002011092010189819A8121E030E0FC01C1
:100560003187208789819A81FC0184859585F1E016
:1005700081399F075CF081E090E0909302018093C5
:10058000010189819A81FC011186108689819A81F5
:10059000FC0184859585F3E081329F0794F080917A
:1005A0000301909104018130910559F410920401E6
:1005B0001092030189819A8121E030E0FC013783A8
:1005C000268389819A81FC0184859585F2E08835AE
:1005D0009F075CF481E090E0909304018093030115
:1005E00089819A81FC01178216820F900F90CF911A
:1005F000DF9108951F920F920FB60F9211248F93DF
:100600009F93DF93CF93CDB7DEB78091DE009091BB
:10061000DF0001969093DF008093DE008091E00080
:100620009091E10001969093E1008093E000CF91DA
:10063000DF919F918F910F900FBE0F901F90189593
:100640001F920F920FB60F9211242F938F939F93A7
:10065000EF93FF93DF93CF93CDB7DEB78091F40094
:100660009091F5008830910508F0A6C08091F400C3
:100670009091F5008330910509F448C084309105CC
:1006800038F48130910521F18230910580F511C057
:100690008530910509F458C08530910508F445C0AE
:1006A0008630910509F460C08730910509F46BC06C
:1006B00079C084E290E0FC01808191819093E9000F
:1006C0008093E80087E290E021E4FC0120836AC087
:1006D00084E290E0FC01808191819093EB00809313
:1006E000EA0087E290E022E4FC0120835BC084E220
:1006F00090E0FC01808191819093ED008093EC006B
:1007000087E290E023E4FC0120834CC084E290E087
:10071000FC01808191819093EF008093EE0087E24D
:1007200090E024E4FC0120833DC084E290E0FC01E1
:10073000808191819093F1008093F00087E290E0B6
:1007400025E6FC0120832EC085E290E0FC0180813B
:10075000882F90E09093F3008093F20087E290E07E
:1007600026E4FC0120831EC084E290E0FC0180812D
:100770009181909354018093530187E290E027E4A4
:10078000FC0120830FC084E290E0FC018081918114
:10079000909352018093510187E290E020E4FC01A4
:1007A000208300008091F4009091F50001969093D1
:1007B000F5008093F40004C01092F5001092F4004C
:1007C00086E290E02AECFC012083CF91DF91FF913B
:1007D000EF919F918F912F910F900FBE0F901F90CF
:1007E0001895DF93CF9300D0CDB7DEB79A83898376
:1007F0001092DF001092DE0000002091DE003091A8
:10080000DF0089819A8128173907B8F30F900F907C
:10081000CF91DF910895DF93CF9300D00F92CDB7A2
:10082000DEB79B838A8385E390E025E330E0F9011E
:1008300020812860FC012083198203C089818F5F99
:1008400089838981282F30E08A819B812817390785
:10085000A8F385E390E025E330E0F9012081277FCC
:10086000FC0120830F900F900F90CF91DF9108959E
:10087000DF93CF9300D0CDB7DEB79A838983898188
:100880009A81009751F085E390E025E330E0F9018B
:1008900020812F7DFC01208309C085E390E025E3C2
:1008A00030E0F90120812062FC0120830F900F903D
:1008B000CF91DF910895DF93CF9300D0CDB7DEB70E
:1008C0009A83898389819A818130910551F085E3EA
:1008D00090E025E330E0F90120812F7EFC012083A8
:1008E00009C085E390E025E330E0F9012081206133
:1008F000FC0120830F900F90CF91DF910895DF933B
:10090000CF9300D0CDB7DEB79A83898389819A814E
:1009100080789070009751F488E390E028E330E00D
:10092000F9012081277FFC01208309C088E390E042
:1009300028E330E0F90120812860FC0120838981CF
:100940009A8180749070009751F488E390E028E3D6
:1009500030E0F90120812B7FFC01208309C088E36E
:1009600090E028E330E0F90120812460FC0120833D
:1009700089819A8180729070009751F488E390E0A9
:1009800028E330E0F90120812D7FFC01208309C09C
:1009900088E390E028E330E0F90120812260FC0147
:1009A000208389819A8180719070009751F488E347
:1009B00090E028E330E0F90120812E7FFC012083C4
:1009C00009C088E390E028E330E0F901208121604C
:1009D000FC01208380916000909161000E940B04D3
:1009E00089819A8188709070009751F488E390E033
:1009F00028E330E0F9012081277FFC01208309C032
:100A000088E390E028E330E0F90120812860FC01D0
:100A1000208389819A8184709070009751F488E3D3
:100A200090E028E330E0F90120812B7FFC01208356
:100A300009C088E390E028E330E0F90120812460D8
:100A4000FC01208389819A8182709070009751F413
:100A500088E390E028E330E0F90120812D7FFC015C
:100A6000208309C088E390E028E330E0F901208189
:100A70002260FC01208389819A81817090700097A7
:100A800051F488E390E028E330E0F90120812E7FE3
:100A9000FC01208309C088E390E028E330E0F901FD
:100AA00020812160FC012083809160009091610091
:100AB0000E940B040F900F90CF91DF910895DF9368
:100AC000CF93CDB7DEB780E991E00E94F10385E3D3
:100AD00090E025E330E0F90120812F7DFC012083A7
:100AE00085E390E025E330E0F90120812F7EFC01D1
:100AF000208388E390E028E330E0F9012081277F1C
:100B0000FC01208388E390E028E330E0F9012081B4
:100B10002B7FFC01208388E390E028E330E0F9019B
:100B200020812260FC01208388E390E028E330E00C
:100B3000F90120812160FC01208380916000909167
:100B400061000E940B0480E991E00E94F103809112
:100B50006000909161000E940B0488EC90E00E947C
:100B6000F10380916000909161000E940B0484E683
:100B700090E00E94F10382E390E00E947F04809164
:100B80006200909163000E94F10388E290E00E946D
:100B90007F0480916200909163000E94F1038CE0D9
:100BA00090E00E947F0480916200909163000E9417
:100BB000F10381E090E00E947F04809162009091B7
:100BC00063000E94F10386E090E00E947F04809120
:100BD0006200909163000E94F103CF91DF9108952C
:100BE000DF93CF93CDB7DEB781E090E00E94380469
:100BF00081E090E00E947F04CF91DF910895DF9320
:100C0000CF9300D000D0CDB7DEB79A8389837C83A1
:100C10006B8381E090E00E94380489819A81813061
:100C20009105E9F0823091051CF4009741F04EC027
:100C30008230910521F18330910589F147C08B8184
:100C40009C8180319105DCF58B819C8180589F4F80
:100C50009C838B838B819C810E947F0437C08B8116
:100C60009C81803191056CF58B819C8180549F4FD4
:100C70009C838B838B819C810E947F0427C08B8106
:100C80009C8180319105FCF48B819C8180579F4F22
:100C90009C838B838B819C810E947F0417C08B81F6
:100CA0009C81803191058CF48B819C8180539F4F76
:100CB0009C838B838B819C810E947F0407C00000F2
:100CC00005C0000003C0000001C000000F900F909D
:100CD0000F900F90CF91DF910895DF93CF93CDB711
:100CE000DEB727970FB6F894DEBF0FBECDBF9B834C
:100CF0008A837D836C835F834E838E8189830DC05D
:100D00008981882F90E02A813B81820F931F20E206
:100D1000FC0120838981815089838981282F30E0DB
:100D20008E819F8105978217930750F32A813B811B
:100D30008E819F81280F391F8C819D814AE050E070
:100D4000BA010E943808805DF90180838E819F81FD
:100D500001979F838E838C819D812AE030E0B901C9
:100D60000E9438089B013D832C838C819D810097D4
:100D7000E9F627960FB6F894DEBF0FBECDBFCF9130
:100D8000DF910895DF93CF9300D00F92CDB7DEB7F8
:100D90009B838A8380E090E00E9438040FC08A81A0
:100DA0009B81FC01808189838A819B8101969B8341
:100DB0008A838981882F90E00E947F048A819B81A9
:100DC000FC018081882359F70F900F900F90CF91ED
:100DD000DF910895DF93CF93CDB7DEB727970FB696
:100DE000F894DEBF0FBECDBF9B838A837D836C8367
:100DF0005F834E8380E090E00E9438048C819D8167
:100E00002A813B81820F931F9B838A8314C08A812E
:100E10009B81FC01808189838A819B8101969B83D0
:100E20008A838981882F90E00E947F048E819F8130
:100E300001979F838E838E819F81181619063CF33C
:100E400027960FB6F894DEBF0FBECDBFCF91DF91CE
:100E50000895DF93CF9300D000D00F92CDB7DEB7C7
:100E60009B838A837D836C8380E090E00E943804BA
:100E700014C08A819B81FC01808189838A819B8146
:100E800001969B838A838981882F90E00E947F044A
:100E90008C819D8101979D838C838C819D81181607
:100EA00019063CF30F900F900F900F900F90CF9179
:100EB000DF910895DF93CF9300D000D00F92CDB78C
:100EC000DEB79B838A837D836C8380E090E00E9401
:100ED00038048C819D812A813B81820F931F9B83E3
:100EE0008A8317C08C819D8101969D838C838A8122
:100EF0009B81FC01808189838A819B8101969B83F0
:100F00008A838981833229F08981882F90E00E9429
:100F10007F048A819B81FC0180818E3719F78C8147
:100F20009D8101969D838C838C819D810F900F9074
:100F30000F900F900F90CF91DF910895DF93CF9393
:100F4000CDB7DEB768970FB6F894DEBF0FBECDBF42
:100F5000988F8F8B19821A828981282F30E08F8990
:100F6000988D4AE050E0BA010E943808482F405D51
:100F7000CE010796820F931FFC01408389818F5F0A
:100F800089838F89988D2AE030E0B9010E94380862
:100F90009B01388F2F8B8F89988D0097E9F6898177
:100FA000882F90E09E01295F3F4F820F931FFC0125
:100FB00010821B8212C08B81882F90E09E01295FD6
:100FC0003F4F820F931FFC018081882351F08A815B
:100FD0008F5F8A838B818F5F8B838B81803158F306
:100FE00001C000001C828A8181508D8330C08C81B9
:100FF000882F90E09E01295F3F4F820F931FFC01D5
:1010000080818E838C81882F90E02D81222F30E08B
:10101000AE01495F5F4F240F351FF90140819E01EA
:10102000295F3F4F820F931FFC0140838D81882FE2
:1010300090E09E01295F3F4F820F931F2E81FC019C
:1010400020838C818F5F8C838D8181508D839C81E7
:101050008D81981760F2CE0107960E94C2066896AD
:101060000FB6F894DEBF0FBECDBFCF91DF910895CC
:10107000AA1BBB1B51E107C0AA1FBB1FA617B707BE
:1010800010F0A61BB70B881F991F5A95A9F78095DA
:0C1090009095BC01CD010895F894FFCFAD
:10109C0028006400437572656E743A20202020206D
:1010AC0020202050574D3A20202020202020202086
:1010BC00202050574D207365743A2020202020208A
:1010CC002020202020202020202020202020202014
:1010DC00004178697320583A2020202020202020BD
:1010EC004178697320593A20202020202020204666
:1010FC006C616773203A202020202020202042752C
:0E110C0074746F6E3A202020202020202000D6
:00000001FF
