:100000000C942A000C9447000C9447000C94470071
:100010000C9447000C9447000C9447000C94470044
:100020000C9447000C9438020C9447000C94470041
:100030000C9447000C9447000C945E020C9447000B
:100040000C9447000C9447000C9447000C94470014
:100050000C94470011241FBECFE5D4E0DEBFCDBF16
:1000600011E0A0E6B0E0EEEFFDE002C005900D92D9
:10007000AC31B107D9F711E0ACE1B1E001C01D929C
:10008000AF38B107E1F70E9449000C94FD060C94CB
:100090000000DF93CF93CDB7DEB7789489E590E089
:1000A00021E0FC01208383E590E023E0FC01208334
:1000B00087E390E027E330E0F90120812860FC012C
:1000C000208387E390E027E330E0F901208124607A
:1000D000FC01208387E390E027E330E0F9012081F1
:1000E0002260FC01208387E390E027E330E0F90100
:1000F00020812160FC01208384E390E024E330E050
:10010000F90120812062FC01208384E390E024E354
:1001100030E0F90120812061FC01208384E390E03C
:1001200024E330E0F90120812860FC01208381E391
:1001300090E021E330E0F90120812460FC0120837C
:100140008AE390E0FC01108281E390E02FEFFC0154
:10015000208384E390E024E330E0F90120812E7FC6
:10016000FC01208385E390E025E330E0F901208164
:100170002160FC0120830E942E0310921D01109229
:100180001C0187E290E020E4FC01208386E290E0FD
:100190002BECFC0120838EED90E021E431E0B901ED
:1001A0000E94E10301C0000081E891E00E94470144
:1001B00080918301909184018130910521F48AE23C
:1001C00080935D0103C080E280935D018091850191
:1001D000909186018130910521F48AE280937B0120
:1001E00003C080E280937B01809187019091880118
:1001F0008130910521F48AE280936B0103C080E293
:1002000080936B018091890190918A0181309105E1
:1002100021F48AE280936D0103C080E280936D0136
:1002200080918101909182018130910521F480E2D9
:1002300080936C0103C08AE280936C0180911E015F
:1002400090911F018536910508F4ADCF80918B0107
:1002500090918C019C0181E491E0B9014CE050E067
:100260000E94550680918D0190918E019C0181E440
:1002700091E0B9014BE150E00E94550681E491E024
:100280000E94120410921F0110921E018DCFDF9365
:10029000CF9300D0CDB7DEB79A83898383E390E014
:1002A000FC018081882F90E081709070882389F014
:1002B00082E390E022E330E0F90120812460FC0138
:1002C000208389819A8121E030E0FC013183208301
:1002D0000EC082E390E022E330E0F90120812B7F21
:1002E000FC01208389819A81FC011182108289811D
:1002F0009A81FC0182859385F1E08C329F0794F40A
:1003000080913701909138018130910559F4109214
:1003100038011092370189819A8121E030E0FC0197
:100320003383228389819A81FC0182859385F1E060
:1003300081399F075CF089819A81FC0113821282C6
:1003400081E090E0909338018093370189819A8110
:10035000FC0182859385F3E081329F0794F08091C0
:10036000390190913A018130910559F410923A0186
:100370001092390189819A8121E030E0FC013583B6
:10038000248389819A81FC0182859385F2E08835F6
:100390009F075CF481E090E090933A0180933901EB
:1003A00089819A81FC011582148289819A81FC01DC
:1003B00084859585F1E08C329F0794F480913B0110
:1003C00090913C018130910559F410923C011092BA
:1003D0003B0189819A8121E030E0FC01318720874F
:1003E00089819A81FC0184859585F1E081399F0797
:1003F0005CF081E090E090933C0180933B01898127
:100400009A81FC011186108689819A81FC0184857C
:100410009585F3E081329F0794F080913D019091A2
:100420003E018130910559F410923E0110923D0138
:1004300089819A8121E030E0FC013783268389811C
:100440009A81FC0184859585F2E088359F075CF4EC
:1004500081E090E090933E0180933D0189819A81F3
:10046000FC01178216820F900F90CF91DF910895B3
:100470001F920F920FB60F9211248F939F93DF93C9
:10048000CF93CDB7DEB780911C0190911D010196ED
:1004900090931D0180931C0180911E0190911F017A
:1004A000019690931F0180931E01CF91DF919F9140
:1004B0008F910F900FBE0F901F9018951F920F9263
:1004C0000FB60F9211242F938F939F93EF93FF9367
:1004D000DF93CF93CDB7DEB7809132019091330196
:1004E0008830910508F0A5C08091320190913301C8
:1004F0008330910509F448C08430910538F4813087
:10050000910521F18230910580F511C0853091056A
:1005100009F458C08530910508F445C0863091052E
:1005200009F45FC08730910509F46AC078C084E29D
:1005300090E0FC01808191819093270180932601B6
:1005400087E290E021E4FC01208369C084E290E02E
:10055000FC0180819181909329018093280187E299
:1005600090E022E4FC0120835AC084E290E0FC0188
:100570008081918190932B0180932A0187E290E002
:1005800023E4FC0120834BC084E290E0FC018081E5
:10059000918190932D0180932C0187E290E024E4D7
:1005A000FC0120833CC084E290E0FC0180819181C9
:1005B00090932F0180932E0187E290E025E4FC01C7
:1005C00020832DC084E290E0FC0180819181909392
:1005D00031018093300187E290E026E4FC01208322
:1005E0001EC084E290E0FC018081918190938E0195
:1005F00080938D0187E290E027E4FC0120830FC007
:1006000084E290E0FC018081918190938C01809341
:100610008B0187E290E020E4FC01208300008091C0
:10062000320190913301019690933301809332010E
:1006300004C0109233011092320186E290E02AEC5D
:10064000FC012083CF91DF91FF91EF919F918F91DA
:100650002F910F900FBE0F901F901895DF93CF939F
:10066000CDB7DEB72AE435E080E991E0F9010995DC
:1006700085E390E025E330E0F90120812F7DFC0146
:10068000208385E390E025E330E0F90120812F7E8F
:10069000FC01208388E390E028E330E0F901208129
:1006A000277FFC01208388E390E028E330E0F90114
:1006B00020812B7FFC01208388E390E028E330E059
:1006C000F90120812260FC01208388E390E028E387
:1006D00030E0F90120812160FC01208324E635E02F
:1006E0008091600090916100F90109952AE435E05C
:1006F00080E991E0F901099524E635E080916000F8
:1007000090916100F90109952AE435E088EC90E0C8
:10071000F901099524E635E080916000909161002F
:10072000F90109952AE435E084E690E0F90109959C
:1007300026E634E082E390E0F90109952AE435E009
:100740008091620090916300F901099526E634E0FA
:1007500088E290E0F90109952AE435E08091620091
:1007600090916300F901099526E634E08CE090E071
:10077000F90109952AE435E08091620090916300C7
:10078000F901099526E634E081E090E0F901099548
:100790002AE435E08091620090916300F9010995A7
:1007A00026E634E086E090E0F90109952AE435E098
:1007B0008091620090916300F9010995CF91DF91DA
:1007C0000895DF93CF9300D000D000D0CDB7DEB72F
:1007D0009C838B837E836D831A82198215C08981E5
:1007E0009A812D813E81820F931F29813A814B810D
:1007F0005C81240F351FF9012081FC012083898150
:100800009A8101969A83898389819A818C33910593
:1008100034F326960FB6F894DEBF0FBECDBFCF914E
:10082000DF910895DF93CF9300D0CDB7DEB79A83E1
:10083000898327EE35E080E090E060E070E0F90128
:1008400009952AEA36E089819A8160E070E04FE0FC
:1008500050E0F901099527EE35E081E090E060E095
:1008600070E0F90109952AEA36E089819A816FE002
:1008700070E04FE050E0F901099527EE35E082E0A5
:1008800090E060E070E0F90109952AEA36E089819C
:100890009A816EE170E04FE050E0F901099527EE92
:1008A00035E083E090E060E070E0F90109952AEA24
:1008B00036E089819A816DE270E04FE050E0F90105
:1008C00009950F900F90CF91DF910895DF93CF930B
:1008D00000D0CDB7DEB79A83898389819A818078E9
:1008E0009070009751F488E390E028E330E0F9013C
:1008F0002081277FFC01208309C088E390E028E362
:1009000030E0F90120812860FC01208389819A81EF
:1009100080749070009751F488E390E028E330E011
:10092000F90120812B7FFC01208309C088E390E03E
:1009300028E330E0F90120812460FC0120838981D3
:100940009A8180729070009751F488E390E028E3D8
:1009500030E0F90120812D7FFC01208309C088E36C
:1009600090E028E330E0F90120812260FC0120833F
:1009700089819A8180719070009751F488E390E0AA
:1009800028E330E0F90120812E7FFC01208309C09B
:1009900088E390E028E330E0F90120812160FC0148
:1009A000208324E635E08091600090916100F90198
:1009B000099589819A8188709070009751F488E335
:1009C00090E028E330E0F9012081277FFC012083BB
:1009D00009C088E390E028E330E0F9012081286035
:1009E000FC01208389819A8184709070009751F472
:1009F00088E390E028E330E0F90120812B7FFC01BF
:100A0000208309C088E390E028E330E0F9012081E9
:100A10002460FC01208389819A8182709070009704
:100A200051F488E390E028E330E0F90120812D7F44
:100A3000FC01208309C088E390E028E330E0F9015D
:100A400020812260FC01208389819A8181709070CD
:100A5000009751F488E390E028E330E0F901208129
:100A60002E7FFC01208309C088E390E028E330E07A
:100A7000F90120812160FC01208324E635E080918A
:100A8000600090916100F90109950F900F90CF914E
:100A9000DF910895DF93CF9300D0CDB7DEB79A836F
:100AA000898310921D0110921C01000020911C01ED
:100AB00030911D0189819A8128173907B8F30F9069
:100AC0000F90CF91DF910895DF93CF9300D00F92D5
:100AD000CDB7DEB79B838A8385E390E025E330E0E2
:100AE000F90120812860FC012083198203C08981DB
:100AF0008F5F89838981282F30E08A819B81281725
:100B00003907A8F385E390E025E330E0F90120817F
:100B1000277FFC0120830F900F900F90CF91DF91E2
:100B20000895DF93CF9300D0CDB7DEB79A83898342
:100B300089819A81009751F085E390E025E330E0C8
:100B4000F90120812F7DFC01208309C085E390E01D
:100B500025E330E0F90120812062FC0120830F9021
:100B60000F90CF91DF910895DF93CF9300D0CDB751
:100B7000DEB79A83898389819A818130910551F00A
:100B800085E390E025E330E0F90120812F7EFC0130
:100B9000208309C085E390E025E330E0F90120815E
:100BA0002061FC0120830F900F90CF91DF91089579
:100BB000DF93CF93CDB7DEB781E090E00E9491053F
:100BC00081E090E00E946604CF91DF910895DF9369
:100BD000CF9300D000D0CDB7DEB79A8389837C83D2
:100BE0006B8381E090E00E94910589819A81813038
:100BF0009105E9F0823091051CF4009741F04EC058
:100C00008230910521F18330910589F147C08B81B4
:100C10009C8180319105DCF58B819C8180589F4FB0
:100C20009C838B838B819C810E94660437C08B815F
:100C30009C81803191056CF58B819C8180549F4F04
:100C40009C838B838B819C810E94660427C08B814F
:100C50009C8180319105FCF48B819C8180579F4F52
:100C60009C838B838B819C810E94660417C08B813F
:100C70009C81803191058CF48B819C8180539F4FA6
:100C80009C838B838B819C810E94660407C000003B
:100C900005C0000003C0000001C000000F900F90CD
:100CA0000F900F90CF91DF910895DF93CF93CDB741
:100CB000DEB727970FB6F894DEBF0FBECDBF9B837C
:100CC0008A837D836C835F834E838E8189830DC08D
:100CD0008981882F90E02A813B81820F931F20E237
:100CE000FC0120838981815089838981282F30E00C
:100CF0008E819F8105978217930750F32A813B814C
:100D00008E819F81280F391F8C819D814AE050E0A0
:100D1000BA010E94E906805DF90180838E819F817E
:100D200001979F838E838C819D812AE030E0B901F9
:100D30000E94E9069B013D832C838C819D81009755
:100D4000E9F627960FB6F894DEBF0FBECDBFCF9160
:100D5000DF910895DF93CF93CDB7DEB727970FB616
:100D6000F894DEBF0FBECDBF9B838A837D836C83E7
:100D70005F834E8380E090E00E9491058C819D818D
:100D80002A813B81820F931F9B838A8314C08A81AF
:100D90009B81FC01808189838A819B8101969B8351
:100DA0008A838981882F90E00E9466048E819F81CA
:100DB00001979F838E838E819F81181619063CF3BD
:100DC00027960FB6F894DEBF0FBECDBFCF91DF914F
:100DD0000895AA1BBB1B51E107C0AA1FBB1FA61782
:100DE000B70710F0A61BB70B881F991F5A95A9F7D4
:0E0DF00080959095BC01CD010895F894FFCF39
:100DFE00280064002020202020202A2A20202020C5
:100E0E00202020202020202A202020202A202020C0
:100E1E002020202020202A202020202A20202020B0
:100E2E00202020202020202A2A20202020202020A0
:100E3E0000202020202020202020202020202020C4
:100E4E002020202020202A2A202020202020202080
:100E5E0020202020202A2A20202020202020202070
:100E6E00202020202020202020202020200041781B
:100E7E00697320583A2020202020202020417869B4
:100E8E007320593A2020202020202020466C6167B4
:100E9E0073203A2020202020202020427574746F69
:0C0EAE006E3A2020202020202020000090
:00000001FF
